{
  "_format": "hh-sol-artifact-1",
  "contractName": "Multicall",
  "sourceName": "contracts/multicall.sol",
  "abi": [
    {
      "inputs": [
        {
          "components": [
            {
              "internalType": "address",
              "name": "target",
              "type": "address"
            },
            {
              "internalType": "bytes",
              "name": "callData",
              "type": "bytes"
            }
          ],
          "internalType": "struct Multicall.Call[]",
          "name": "calls",
          "type": "tuple[]"
        }
      ],
      "name": "aggregate",
      "outputs": [
        {
          "internalType": "uint256",
          "name": "blockNumber",
          "type": "uint256"
        },
        {
          "internalType": "bytes[]",
          "name": "returnData",
          "type": "bytes[]"
        }
      ],
      "stateMutability": "nonpayable",
      "type": "function"
    },
    {
      "inputs": [],
      "name": "getCurrentBlockGasLimit",
      "outputs": [
        {
          "internalType": "uint256",
          "name": "gaslimit",
          "type": "uint256"
        }
      ],
      "stateMutability": "view",
      "type": "function"
    },
    {
      "inputs": [],
      "name": "getCurrentBlockTimestamp",
      "outputs": [
        {
          "internalType": "uint256",
          "name": "timestamp",
          "type": "uint256"
        }
      ],
      "stateMutability": "view",
      "type": "function"
    },
    {
      "inputs": [
        {
          "internalType": "address",
          "name": "addr",
          "type": "address"
        }
      ],
      "name": "getEthBalance",
      "outputs": [
        {
          "internalType": "uint256",
          "name": "balance",
          "type": "uint256"
        }
      ],
      "stateMutability": "view",
      "type": "function"
    },
    {
      "inputs": [],
      "name": "getName",
      "outputs": [
        {
          "internalType": "string",
          "name": "",
          "type": "string"
        }
      ],
      "stateMutability": "view",
      "type": "function"
    },
    {
      "inputs": [],
      "name": "name",
      "outputs": [
        {
          "internalType": "string",
          "name": "",
          "type": "string"
        }
      ],
      "stateMutability": "view",
      "type": "function"
    }
  ],
  "bytecode": "0x60806040526040518060400160405280600981526020017f4d756c746963616c6c0000000000000000000000000000000000000000000000815250600090805190602001906200005192919062000071565b503480156200006a57600080620000676200013d565b50505b50620002a3565b82806200007d620001ad565b600181600116156101000203166002900490600052602060002090601f016020900481019282620000bd57600085620000b562000212565b50506200012a565b82601f10620000e357805160ff19168380011785620000db62000212565b50506200012a565b82800160010185620000f462000212565b505082156200012a579182015b8281111562000129578251826200011762000212565b50509160200191906001019062000101565b5b50905062000139919062000279565b5090565b632a2a7adb598160e01b8152600481016020815285602082015260005b868110156200017a5780860151816040840101526020810190506200015a565b506020828760640184336000905af158600e01573d6000803e3d6000fd5b3d6001141558600a015760016000f35b505050565b6303daa959598160e01b8152836004820152602081602483336000905af158600e01573d6000803e3d6000fd5b3d6001141558600a015760016000f35b8051935060005b60408110156200020d57600081830152602081019050620001f1565b505050565b6322bd64c0598160e01b8152836004820152846024820152600081604483336000905af158600e01573d6000803e3d6000fd5b3d6001141558600a015760016000f35b60005b6040811015620002745760008183015260208101905062000258565b505050565b5b808211156200029f576000816000906200029362000212565b5050506001016200027a565b5090565b610f8180620002b36000396000f3fe608060405234801561001957600080610016610512565b50505b506004361061006b5760003560e01c806306fdde03146100795780630f28c97d1461009757806317d7de7c146100b5578063252dba42146100d35780634d2301cc1461010457806386d516e814610134575b600080610076610512565b50505b610081610152565b60405161008e9190610d3a565b60405180910390f35b61009f61020c565b6040516100ac9190610d5c565b60405180910390f35b6100bd61021c565b6040516100ca9190610d3a565b60405180910390f35b6100ed60048036038101906100e89190610b39565b6102da565b6040516100fb929190610d77565b60405180910390f35b61011e60048036038101906101199190610b07565b610437565b60405161012b9190610d5c565b60405180910390f35b61013c610502565b6040516101499190610d5c565b60405180910390f35b60008061015d610580565b600181600116156101000203166002900480601f01602080910402602001604051908101604052809291908181526020018280610198610580565b600181600116156101000203166002900480156102045780601f106101d25761010080836101c4610580565b040283529160200191610204565b820191906000526020600020905b816101e9610580565b815290600101906020018083116101e057829003601f168201915b505050505081565b60005a6102176105e3565b905090565b6060600080610229610580565b600181600116156101000203166002900480601f01602080910402602001604051908101604052809291908181526020018280610264610580565b600181600116156101000203166002900480156102d05780601f1061029e576101008083610290610580565b0402835291602001916102d0565b820191906000526020600020905b816102b5610580565b815290600101906020018083116102ac57829003601f168201915b5050505050905090565b600060605a6102e7610640565b9150825167ffffffffffffffff8111801561030a57600080610307610512565b50505b5060405190808252806020026020018201604052801561033e57816020015b60608152602001906001900390816103295790505b50905060005b83518110156104315760008085838151811061035c57fe5b60200260200101516000015173ffffffffffffffffffffffffffffffffffffffff1686848151811061038a57fe5b6020026020010151602001516040516103a39190610d08565b6000604051808303816000865a6103b861069d565b5050505050509150503d80600081146103ed576040519150601f19603f3d011682016040523d82523d6000602084013e6103f2565b606091505b50915091508161040a57600080610407610512565b50505b8084848151811061041757fe5b602002602001018190525050508080600101915050610344565b50915091565b600073420000000000000000000000000000000000000673ffffffffffffffffffffffffffffffffffffffff166370a08231836040518263ffffffff1660e01b81526004016104869190610d1f565b602060405180830381868061049961079d565b1580156104ae576000806104ab610512565b50505b505a6104b8610800565b50505050501580156104d7573d6000803e3d60006104d4610512565b50505b505050506040513d601f19601f820116820180604052508101906104fb9190610b8c565b9050919050565b60005a61050d610900565b905090565b632a2a7adb598160e01b8152600481016020815285602082015260005b8681101561054d57808601518160408401015260208101905061052f565b506020828760640184336000905af158600e01573d6000803e3d6000fd5b3d6001141558600a015760016000f35b505050565b6303daa959598160e01b8152836004820152602081602483336000905af158600e01573d6000803e3d6000fd5b3d6001141558600a015760016000f35b8051935060005b60408110156105de576000818301526020810190506105c4565b505050565b63bdbf8c36598160e01b8152602081600483336000905af158600e01573d6000803e3d6000fd5b3d6001141558600a015760016000f35b8051935060005b604081101561063b57600081830152602081019050610621565b505050565b635a98c361598160e01b8152602081600483336000905af158600e01573d6000803e3d6000fd5b3d6001141558600a015760016000f35b8051935060005b60408110156106985760008183015260208101905061067e565b505050565b6385979f76598160e01b81526106dc565b6000819050818311156106bf578290505b92915050565b6000819050818310156106d6578290505b92915050565b836004820152846024820152606060448201528760648201526084810160005b898110156107175780890151818301526020810190506106fc565b506060828a60a40184336000905af158600e01573d6000803e3d6000fd5b3d6001141558600a015760016000f35b815160408301513d6000853e8c8c82606087013350600060045af1505961076c8e3d6106c5565b8d0161077881876106ae565b5b828110156107905760008152602081019050610779565b50839e5050505050505050565b638435035b598160e01b8152836004820152602081602483336000905af158600e01573d6000803e3d6000fd5b3d6001141558600a015760016000f35b8051935060005b60408110156107fb576000818301526020810190506107e1565b505050565b638540661f598160e01b815261083f565b600081905081831115610822578290505b92915050565b600081905081831015610839578290505b92915050565b836004820152846024820152606060448201528660648201526084810160005b8881101561087a57808801518183015260208101905061085f565b506060828960a40184336000905af158600e01573d6000803e3d6000fd5b3d6001141558600a015760016000f35b815160408301513d6000853e8b8b82606087013350600060045af150596108cf8d3d610828565b8c016108db8187610811565b5b828110156108f357600081526020810190506108dc565b50839d5050505050505050565b6320160f3a598160e01b8152602081600483336000905af158600e01573d6000803e3d6000fd5b3d6001141558600a015760016000f35b8051935060005b60408110156109585760008183015260208101905061093e565b505050565b600061097061096b84610dd8565b610da7565b9050808382526020820190508260005b858110156109b057813585016109968882610a7c565b845260208401935060208301925050600181019050610980565b5050509392505050565b60006109cd6109c884610e04565b610da7565b9050828152602081018484840111156109ee576000806109eb610512565b50505b6109f9848285610eec565b509392505050565b600081359050610a1081610f41565b92915050565b600082601f830112610a3057600080610a2d610512565b50505b8135610a4084826020860161095d565b91505092915050565b600082601f830112610a6357600080610a60610512565b50505b8135610a738482602086016109ba565b91505092915050565b600060408284031215610a9757600080610a94610512565b50505b610aa16040610da7565b90506000610ab184828501610a01565b600083015250602082013567ffffffffffffffff811115610ada57600080610ad7610512565b50505b610ae684828501610a49565b60208301525092915050565b600081519050610b0181610f61565b92915050565b600060208284031215610b2257600080610b1f610512565b50505b6000610b3084828501610a01565b91505092915050565b600060208284031215610b5457600080610b51610512565b50505b600082013567ffffffffffffffff811115610b7757600080610b74610512565b50505b610b8384828501610a16565b91505092915050565b600060208284031215610ba757600080610ba4610512565b50505b6000610bb584828501610af2565b91505092915050565b6000610bca8383610c56565b905092915050565b610bdb81610eb0565b82525050565b6000610bec82610e44565b610bf68185610e72565b935083602082028501610c0885610e34565b8060005b85811015610c445784840389528151610c258582610bbe565b9450610c3083610e65565b925060208a01995050600181019050610c0c565b50829750879550505050505092915050565b6000610c6182610e4f565b610c6b8185610e83565b9350610c7b818560208601610efb565b610c8481610f30565b840191505092915050565b6000610c9a82610e4f565b610ca48185610e94565b9350610cb4818560208601610efb565b80840191505092915050565b6000610ccb82610e5a565b610cd58185610e9f565b9350610ce5818560208601610efb565b610cee81610f30565b840191505092915050565b610d0281610ee2565b82525050565b6000610d148284610c8f565b915081905092915050565b6000602082019050610d346000830184610bd2565b92915050565b60006020820190508181036000830152610d548184610cc0565b905092915050565b6000602082019050610d716000830184610cf9565b92915050565b6000604082019050610d8c6000830185610cf9565b8181036020830152610d9e8184610be1565b90509392505050565b6000604051905081810181811067ffffffffffffffff82111715610dce57610dcd610f2e565b5b8060405250919050565b600067ffffffffffffffff821115610df357610df2610f2e565b5b602082029050602081019050919050565b600067ffffffffffffffff821115610e1f57610e1e610f2e565b5b601f19601f8301169050602081019050919050565b6000819050602082019050919050565b600081519050919050565b600081519050919050565b600081519050919050565b6000602082019050919050565b600082825260208201905092915050565b600082825260208201905092915050565b600081905092915050565b600082825260208201905092915050565b6000610ebb82610ec2565b9050919050565b600073ffffffffffffffffffffffffffffffffffffffff82169050919050565b6000819050919050565b82818337600083830152505050565b60005b83811015610f19578082015181840152602081019050610efe565b83811115610f28576000848401525b50505050565bfe5b6000601f19601f8301169050919050565b610f4a81610eb0565b8114610f5e57600080610f5b610512565b50505b50565b610f6a81610ee2565b8114610f7e57600080610f7b610512565b50505b5056",
  "linkReferences": {},
  "deployedLinkReferences": {}
}